ACT     ZRJO08                    AD-12   TIME 240702 1652  CLUSTER
INTEGRATED SUBSCRIBER TRACER MESSAGE
TSID
 0-186

DATA
3930846689CF0300BE050000BE050000000100037369
700000030004000000030ADF6E4B0004000400000003
0A2E458E000513C400000000000613C4000000000007
00037564700000020582494E56495445207369703A36
303030313032333038303037323630303138407A726A
382E76316E3B757365723D70686F6E65205349502F32
2E300D0A46726F6D3A20223835393939323330303936
22203C7369703A38353939393233303039364074696D
6272314E2E636F6D3B757365723D70686F6E653E3B74
61673D61386464336331622D303030372D303163642D
303030302D303030300D0A546F3A203C7369703A3630
3030313032333038303037323630303138407A726A38
2E76316E3B757365723D70686F6E653E0D0A4D61782D
466F7277617264733A2036390D0A5669613A20534950
2F322E302F554450202031302E3232332E3131302E37
353A353036303B6272616E63683D7A39684734624B34
386635616166320D0A43616C6C2D49443A2036376439
38356230316462343037622D303030372D303163642D
303030302D303030304031302E3232332E3131302E37
350D0A435365713A203120494E564954450D0A436F6E
746163743A203C7369703A3835393939323330303936
4031302E3232332E3131302E37353A353036303E0D0A
416C6C6F773A20494E564954452C41434B2C4F505449
4F4E532C4259452C43414E43454C2C52454749535445
522C494E464F2C505241434B2C5550444154452C5355
425343524942452C4E4F544946592C4D455353414745
2C52454645522C5055424C4953480D0A537570706F72
7465643A2031303072656C0D0A502D41737365727465
642D4964656E746974793A203C7369703A3835393939
3233303039364074696D6272314E2E636F6D3B757365
723D70686F6E653E0D0A502D4368617267696E672D56
6563746F723A20696369642D76616C75653D34464632
3944383631332D303730322D31363532303730393B69
6369642D67656E6572617465642D61743D424330302E
5A52434530392E54494D3B6F7269672D696F693D5A52
434530392E54494D0D0A4163636570743A206170706C
69636174696F6E2F7364702C6170706C69636174696F
6E2F697375702C6170706C69636174696F6E2F786D6C
0D0A436F6E74656E742D547970653A206D756C746970
6172742F6D697865643B626F756E646172793D756E69
7175652D626F756E646172792D310D0A4D494D452D56
657273696F6E3A20312E300D0A436F6E74656E742D4C
656E6774683A20203534370D0A0D0A2D2D756E697175
652D626F756E646172792D310D0A436F6E74656E742D
547970653A206170706C69636174696F6E2F7364700D
0A0D0A763D300D0A6F3D2D2035373733303530203537
373330353020494E2049503420302E302E302E300D0A
733D494D53530D0A633D494E204950342031302E3231
322E372E3136350D0A743D3020300D0A613D73656E64
726563760D0A6D3D617564696F203332313934205254
502F41565020313820382039390D0A633D494E204950
342031302E3231322E372E3136350D0A623D52523A30
0D0A623D52533A300D0A613D666D74703A313820616E
6E6578623D7965730D0A613D7274706D61703A393920
74656C6570686F6E652D6576656E742F383030300D0A
613D666D74703A393920302D31350D0A613D6D617870
74696D653A34300D0A0D0A2D2D756E697175652D626F
756E646172792D310D0A436F6E74656E742D54797065
3A206170706C69636174696F6E2F697375703B766572
73696F6E3D6974752D7439322B3B626173653D697475
2D7439322B0D0A436F6E74656E742D446973706F7369
74696F6E3A207369676E616C3B68616E646C696E673D
6F7074696F6E616C0D0A0D0A011160010A00020E0C83
10060001328000270610080A088313589929039006F4
05ABB78F918B1D038090A36F088314800027061008C0
090683105899290390063A0643055000000031020000
39086FC0C0D03AD031C0000D0A2D2D756E697175652D
626F756E646172792D312D2D393084669D0604009A01
00009A01000000010003736970000003000400000003
0A2E458E00040004000000030ADF6E4B000513C40000
0000000613C40000000000070003756470000002015E
5349502F322E302031303020547279696E670D0A4672
6F6D3A2022383539393932333030393622203C736970
3A38353939393233303039364074696D6272314E2E63
6F6D3B757365723D70686F6E653E3B7461673D613864
64336331622D303030372D303163642D303030302D30
3030300D0A546F3A203C7369703A3630303031303233
3038303037323630303138407A726A382E76316E3B75
7365723D70686F6E653E0D0A5669613A205349502F32
2E302F554450202031302E3232332E3131302E37353A
353036303B6272616E63683D7A39684734624B343866
35616166323B72656365697665643D31302E3232332E
3131302E37350D0A43616C6C2D49443A203637643938
356230316462343037622D303030372D303163642D30
3030302D303030304031302E3232332E3131302E3735
0D0A435365713A203120494E564954450D0A436F6E74
656E742D4C656E6774683A20202020300D0A0D0A3930
84666E2307002E0400002E0400000001000373697000
00030004000000030A2E458E00040004000000030ADF
6E4B000513C400000000000613C40000000000070003
75647000000203F25349502F322E3020313833205365
7373696F6E2050726F67726573730D0A46726F6D3A20
22383539393932333030393622203C7369703A383539
39393233303039364074696D6272314E2E636F6D3B75
7365723D70686F6E653E3B7461673D61386464336331
622D303030372D303163642D303030302D303030300D
0A546F3A203C7369703A363030303130323330383030
37323630303138407A726A382E76316E3B757365723D
70686F6E653E3B7461673D3039303034303738353635
3839390D0A5669613A205349502F322E302F55445020
2031302E3232332E3131302E37353A353036303B6272
616E63683D7A39684734624B34386635616166323B72
656365697665643D31302E3232332E3131302E37350D
0A5265636F72642D526F7574653A203C7369703A4243
30302E5A524A4F30382E54494D3A353036303B747261
6E73706F72743D5544503B6C723E0D0A43616C6C2D49
443A203637643938356230316462343037622D303030
372D303163642D303030302D303030304031302E3232
332E3131302E37350D0A435365713A203120494E5649
54450D0A502D4368617267696E672D566563746F723A
20696369642D76616C75653D34464632394438363133
2D303730322D31363532303730393B696369642D6765
6E6572617465642D61743D424330302E5A5243453039
2E54494D3B6F7269672D696F693D5A52434530392E54
494D3B7465726D2D696F693D5A524A4F30382E54494D
0D0A526571756972653A2031303072656C0D0A525365
713A203530300D0A416C6C6F773A20494E564954452C
41434B2C4F5054494F4E532C4259452C43414E43454C
2C494E464F2C505241434B2C5550444154450D0A436F
6E74656E742D547970653A206170706C69636174696F
6E2F7364700D0A436F6E746163743A203C7369703A42
4330302E5A524A4F30382E54494D3A353036303B7472
616E73706F72743D5544503E0D0A436F6E74656E742D
4C656E6774683A20203237360D0A0D0A763D300D0A6F
3D2D2032363638323337203236363832333720494E20
49503420424330302E5A524A4F30382E54494D0D0A73
3D2D0D0A633D494E204950342031302E3232302E3130
2E3130300D0A743D3020300D0A613D73656E64726563
760D0A6D3D617564696F203234393930205254502F41
56502031382039390D0A633D494E204950342031302E
3232302E31302E3130300D0A623D52523A300D0A623D
52533A300D0A613D7274706D61703A31382047373239
2F383030300D0A613D666D74703A313820616E6E6578
623D7965730D0A613D7274706D61703A39392074656C
6570686F6E652D6576656E742F383030300D0A613D66
6D74703A393920302D31350D0A613D6D61787074696D
653A34300D0A393084669B2707007F0200007F020000
000100037369700000030004000000030ADF6E4B0004
0004000000030A2E458E000513C400000000000613C4
00000000000700037564700000020243505241434B20
7369703A424330302E5A524A4F30382E54494D3A3530
36303B7472616E73706F72743D554450205349502F32
2E300D0A46726F6D3A20223835393939323330303936
22203C7369703A38353939393233303039364074696D
6272314E2E636F6D3B757365723D70686F6E653E3B74
61673D61386464336331622D303030372D303163642D
303030302D303030300D0A546F3A203C7369703A3630
3030313032333038303037323630303138407A726A38
2E76316E3B757365723D70686F6E653E3B7461673D30
393030343037383536353839390D0A4D61782D466F72
77617264733A2036390D0A5669613A205349502F322E
302F554450202031302E3232332E3131302E37353A35
3036303B6272616E63683D7A39684734624B35616662
643133300D0A526F7574653A203C7369703A42433030
2E5A524A4F30382E54494D3A353036303B7472616E73
706F72743D5544503B6C723E0D0A43616C6C2D49443A
203637643938356230316462343037622D303030372D
303163642D303030302D303030304031302E3232332E
3131302E37350D0A435365713A203220505241434B0D
0A5241636B3A20353030203120494E564954450D0A50
2D4368617267696E672D566563746F723A2069636964
2D76616C75653D344646323944383631332D30373032
2D31363532303730393B696369642D67656E65726174
65642D61743D424330302E5A52434530392E54494D3B
6F7269672D696F693D5A52434530392E54494D0D0A43
6F6E74656E742D4C656E6774683A20202020300D0A0D
0A39308466462A0700A8010000A80100000001000373
69700000030004000000030A2E458E00040004000000
030ADF6E4B000513C400000000000613C40000000000
070003756470000002016C5349502F322E3020323030
204F4B0D0A46726F6D3A202238353939393233303039
3622203C7369703A3835393939323330303936407469
6D6272314E2E636F6D3B757365723D70686F6E653E3B
7461673D61386464336331622D303030372D30316364
2D303030302D303030300D0A546F3A203C7369703A36
303030313032333038303037323630303138407A726A
382E76316E3B757365723D70686F6E653E3B7461673D
30393030343037383536353839390D0A5669613A2053
49502F322E302F554450202031302E3232332E313130
2E37353A353036303B6272616E63683D7A3968473462
4B35616662643133303B72656365697665643D31302E
3232332E3131302E37350D0A43616C6C2D49443A2036
37643938356230316462343037622D303030372D3031
63642D303030302D303030304031302E3232332E3131
302E37350D0A435365713A203220505241434B0D0A43
6F6E74656E742D4C656E6774683A20202020300D0A0D
0A393084668E2A07004C0300004C0300000001000373
69700000030004000000030A2E458E00040004000000
030ADF6E4B000513C400000000000613C40000000000
07000375647000000203105349502F322E3020313833
2053657373696F6E2050726F67726573730D0A46726F
6D3A2022383539393932333030393622203C7369703A
38353939393233303039364074696D6272314E2E636F
6D3B757365723D70686F6E653E3B7461673D61386464
336331622D303030372D303163642D303030302D3030
30300D0A546F3A203C7369703A363030303130323330
38303037323630303138407A726A382E76316E3B7573
65723D70686F6E653E3B7461673D3039303034303738
3536353839390D0A5669613A205349502F322E302F55
4450202031302E3232332E3131302E37353A35303630
3B6272616E63683D7A39684734624B34386635616166
323B72656365697665643D31302E3232332E3131302E
37350D0A5265636F72642D526F7574653A203C736970
3A424330302E5A524A4F30382E54494D3A353036303B
7472616E73706F72743D5544503B6C723E0D0A43616C
6C2D49443A203637643938356230316462343037622D
303030372D303163642D303030302D30303030403130
2E3232332E3131302E37350D0A435365713A20312049
4E564954450D0A502D4368617267696E672D56656374
6F723A20696369642D76616C75653D34464632394438
3631332D303730322D31363532303730393B69636964
2D67656E6572617465642D61743D424330302E5A5243
4530392E54494D3B6F7269672D696F693D5A52434530
392E54494D3B7465726D2D696F693D5A524A4F30382E
54494D0D0A526571756972653A2031303072656C0D0A
525365713A203530310D0A436F6E74656E742D547970
653A206170706C69636174696F6E2F697375703B7665
7273696F6E3D6974752D7439322B3B626173653D6974
752D7439322B0D0A436F6E74656E742D446973706F73
6974696F6E3A207369676E616C3B68616E646C696E67
3D72657175697265640D0A4D494D452D56657273696F
6E3A20312E300D0A436F6E746163743A203C7369703A
424330302E5A524A4F30382E54494D3A353036303B74
72616E73706F72743D5544503E0D0A436F6E74656E74
2D4C656E6774683A20202020380D0A0D0A0600200129
01010039308466D82A07009A0300009A030000000100
037369700000030004000000030A2E458E0004000400
0000030ADF6E4B000513C400000000000613C4000000
0000070003756470000002035E5349502F322E302032
3030204F4B0D0A46726F6D3A20223835393939323330
30393622203C7369703A383539393932333030393640
74696D6272314E2E636F6D3B757365723D70686F6E65
3E3B7461673D61386464336331622D303030372D3031
63642D303030302D303030300D0A546F3A203C736970
3A36303030313032333038303037323630303138407A
726A382E76316E3B757365723D70686F6E653E3B7461
673D30393030343037383536353839390D0A5669613A
205349502F322E302F554450202031302E3232332E31
31302E37353A353036303B6272616E63683D7A396847
34624B34386635616166323B72656365697665643D31
302E3232332E3131302E37350D0A5265636F72642D52
6F7574653A203C7369703A424330302E5A524A4F3038
2E54494D3A353036303B7472616E73706F72743D5544
503B6C723E0D0A43616C6C2D49443A20363764393835
6230316462343037622D303030372D303163642D3030
30302D303030304031302E3232332E3131302E37350D
0A435365713A203120494E564954450D0A416C6C6F77
3A20494E564954452C41434B2C4F5054494F4E532C42
59452C43414E43454C2C494E464F2C505241434B2C55
50444154450D0A502D4368617267696E672D56656374
6F723A20696369642D76616C75653D34464632394438
3631332D303730322D31363532303730393B69636964
2D67656E6572617465642D61743D424330302E5A5243
4530392E54494D3B6F7269672D696F693D5A52434530
392E54494D3B7465726D2D696F693D5A524A4F30382E
54494D0D0A4163636570743A206170706C6963617469
6F6E2F7364702C6170706C69636174696F6E2F697375
702C6D756C7469706172742F6D697865640D0A4D494D
452D56657273696F6E3A20312E300D0A436F6E74656E
742D547970653A206170706C69636174696F6E2F6973
75703B76657273696F6E3D6974752D7439322B3B6261
73653D6974752D7439322B0D0A436F6E74656E742D44
6973706F736974696F6E3A207369676E616C3B68616E
646C696E673D72657175697265640D0A436F6E746163
743A203C7369703A424330302E5A524A4F30382E5449
4D3A353036303B7472616E73706F72743D5544503E0D
0A436F6E74656E742D4C656E6774683A20202031340D
0A0D0A0901110200002901012102000B00393084663F
320700FC010000FC0100000001000373697000000300
04000000030ADF6E4B00040004000000030A2E458E00
0513C400000000000613C40000000000070003756470
00000201C041434B207369703A424330302E5A524A4F
30382E54494D3A353036303B7472616E73706F72743D
554450205349502F322E300D0A46726F6D3A20223835
39393932333030393622203C7369703A383539393932
33303039364074696D6272314E2E636F6D3B75736572
3D70686F6E653E3B7461673D61386464336331622D30
3030372D303163642D303030302D303030300D0A546F
3A203C7369703A363030303130323330383030373236
30303138407A726A382E76316E3B757365723D70686F
6E653E3B7461673D3039303034303738353635383939
0D0A4D61782D466F7277617264733A2036390D0A5669
613A205349502F322E302F554450202031302E323233
2E3131302E37353A353036303B6272616E63683D7A39
684734624B343866356161663261636B0D0A526F7574
653A203C7369703A424330302E5A524A4F30382E5449
4D3A353036303B7472616E73706F72743D5544503B6C
723E0D0A43616C6C2D49443A20363764393835623031
6462343037622D303030372D303163642D303030302D
303030304031302E3232332E3131302E37350D0A4353
65713A20312041434B0D0A436F6E74656E742D4C656E
6774683A20202020300D0A0D0A39308466013307007F
0200007F020000000100037369700000030004000000
030ADF6E4B00040004000000030A2E458E000513C400
000000000613C4000000000007000375647000000202
43505241434B207369703A424330302E5A524A4F3038
2E54494D3A353036303B7472616E73706F72743D5544
50205349502F322E300D0A46726F6D3A202238353939
3932333030393622203C7369703A3835393939323330
3039364074696D6272314E2E636F6D3B757365723D70
686F6E653E3B7461673D61386464336331622D303030
372D303163642D303030302D303030300D0A546F3A20
3C7369703A3630303031303233303830303732363030
3138407A726A382E76316E3B757365723D70686F6E65
3E3B7461673D30393030343037383536353839390D0A
4D61782D466F7277617264733A2036390D0A5669613A
205349502F322E302F554450202031302E3232332E31
31302E37353A353036303B6272616E63683D7A396847
34624B62373731376536370D0A526F7574653A203C73
69703A424330302E5A524A4F30382E54494D3A353036
303B7472616E73706F72743D5544503B6C723E0D0A43
616C6C2D49443A203637643938356230316462343037
622D303030372D303163642D303030302D3030303040
31302E3232332E3131302E37350D0A435365713A2033
20505241434B0D0A5241636B3A20353031203120494E
564954450D0A502D4368617267696E672D566563746F
723A20696369642D76616C75653D3446463239443836
31332D303730322D31363532303730393B696369642D
67656E6572617465642D61743D424330302E5A524345
30392E54494D3B6F7269672D696F693D5A5243453039
2E54494D0D0A436F6E74656E742D4C656E6774683A20
202020300D0A0D0A393084664D340700A8010000A801
0000000100037369700000030004000000030A2E458E
00040004000000030ADF6E4B000513C4000000000006
13C40000000000070003756470000002016C5349502F
322E3020323030204F4B0D0A46726F6D3A2022383539
393932333030393622203C7369703A38353939393233
303039364074696D6272314E2E636F6D3B757365723D
70686F6E653E3B7461673D61386464336331622D3030
30372D303163642D303030302D303030300D0A546F3A
203C7369703A36303030313032333038303037323630
303138407A726A382E76316E3B757365723D70686F6E
653E3B7461673D30393030343037383536353839390D
0A5669613A205349502F322E302F554450202031302E
3232332E3131302E37353A353036303B6272616E6368
3D7A39684734624B62373731376536373B7265636569
7665643D31302E3232332E3131302E37350D0A43616C
6C2D49443A203637643938356230316462343037622D
303030372D303163642D303030302D30303030403130
2E3232332E3131302E37350D0A435365713A20332050
5241434B0D0A436F6E74656E742D4C656E6774683A20
202020300D0A0D0A

END
♦ftK
ACT     ZRJO08                    AD-12   TIME 240702 1652  CLUSTER
INTEGRATED SUBSCRIBER TRACER MESSAGE
TSID
 0-186

DATA
39308466EF340700F2020000F2020000000100037369
700000030004000000030ADF6E4B0004000400000003
0A2E458E000513C400000000000613C4000000000007
000375647000000202B6494E464F207369703A424330
302E5A524A4F30382E54494D3A353036303B7472616E
73706F72743D554450205349502F322E300D0A46726F
6D3A2022383539393932333030393622203C7369703A
38353939393233303039364074696D6272314E2E636F
6D3B757365723D70686F6E653E3B7461673D61386464
336331622D303030372D303163642D303030302D3030
30300D0A546F3A203C7369703A363030303130323330
38303037323630303138407A726A382E76316E3B7573
65723D70686F6E653E3B7461673D3039303034303738
3536353839390D0A4D61782D466F7277617264733A20
37300D0A5669613A205349502F322E302F5544502020
31302E3232332E3131302E37353A353036303B627261
6E63683D7A39684734624B32343833333133350D0A52
6F7574653A203C7369703A424330302E5A524A4F3038
2E54494D3A353036303B7472616E73706F72743D5544
503B6C723E0D0A43616C6C2D49443A20363764393835
6230316462343037622D303030372D303163642D3030
30302D303030304031302E3232332E3131302E37350D
0A435365713A203420494E464F0D0A502D4368617267
696E672D566563746F723A20696369642D76616C7565
3D344646323944383631332D303730322D3136353230
3730393B696369642D67656E6572617465642D61743D
424330302E5A52434530392E54494D3B6F7269672D69
6F693D5A52434530392E54494D3B7465726D2D696F69
3D5A524A4F30382E54494D0D0A436F6E74656E742D54
7970653A206170706C69636174696F6E2F697375703B
76657273696F6E3D6974752D7439322B3B626173653D
6974752D7439322B0D0A436F6E74656E742D44697370
6F736974696F6E3A207369676E616C3B68616E646C69
6E673D6F7074696F6E616C0D0A436F6E74656E742D4C
656E6774683A20202020370D0A0D0A2F02000383E329
393084669C3607003202000032020000000100037369
700000030004000000030A2E458E0004000400000003
0ADF6E4B000513C400000000000613C4000000000007
000375647000000201F65349502F322E302034303020
42616420526571756573740D0A46726F6D3A20223835
39393932333030393622203C7369703A383539393932
33303039364074696D6272314E2E636F6D3B75736572
3D70686F6E653E3B7461673D61386464336331622D30
3030372D303163642D303030302D303030300D0A546F
3A203C7369703A363030303130323330383030373236
30303138407A726A382E76316E3B757365723D70686F
6E653E3B7461673D3039303034303738353635383939
0D0A5669613A205349502F322E302F55445020203130
2E3232332E3131302E37353A353036303B6272616E63
683D7A39684734624B32343833333133353B72656365
697665643D31302E3232332E3131302E37350D0A4361
6C6C2D49443A20363764393835623031646234303762
2D303030372D303163642D303030302D303030304031
302E3232332E3131302E37350D0A435365713A203420
494E464F0D0A502D4368617267696E672D566563746F
723A20696369642D76616C75653D3446463239443836
31332D303730322D31363532303730393B696369642D
67656E6572617465642D61743D424330302E5A524345
30392E54494D3B6F7269672D696F693D5A5243453039
2E54494D3B7465726D2D696F693D5A524A4F30382E54
494D0D0A436F6E74656E742D4C656E6774683A202020
20300D0A0D0A

END
♦ftK
ACT     ZRJO08                    AD-12   TIME 240702 1652  CLUSTER
INTEGRATED SUBSCRIBER TRACER MESSAGE
TSID
 0-186

DATA
3B308466F2D00A000703000007030000000100037369
700000030004000000030ADF6E4B0004000400000003
0A2E458E000513C400000000000613C4000000000007
000375647000000202CB425945207369703A42433030
2E5A524A4F30382E54494D3A353036303B7472616E73
706F72743D554450205349502F322E300D0A46726F6D
3A2022383539393932333030393622203C7369703A38
353939393233303039364074696D6272314E2E636F6D
3B757365723D70686F6E653E3B7461673D6138646433
6331622D303030372D303163642D303030302D303030
300D0A546F3A203C7369703A36303030313032333038
303037323630303138407A726A382E76316E3B757365
723D70686F6E653E3B7461673D303930303430373835
36353839390D0A4D61782D466F7277617264733A2037
300D0A5669613A205349502F322E302F554450202031
302E3232332E3131302E37353A353036303B6272616E
63683D7A39684734624B32353533316431330D0A526F
7574653A203C7369703A424330302E5A524A4F30382E
54494D3A353036303B7472616E73706F72743D554450
3B6C723E0D0A43616C6C2D49443A2036376439383562
30316462343037622D303030372D303163642D303030
302D303030304031302E3232332E3131302E37350D0A
435365713A2035204259450D0A526561736F6E3A2051
2E3835303B63617573653D31360D0A502D4368617267
696E672D566563746F723A20696369642D76616C7565
3D344646323944383631332D303730322D3136353230
3730393B696369642D67656E6572617465642D61743D
424330302E5A52434530392E54494D3B6F7269672D69
6F693D5A52434530392E54494D3B7465726D2D696F69
3D5A524A4F30382E54494D0D0A436F6E74656E742D54
7970653A206170706C69636174696F6E2F697375703B
76657273696F6E3D6974752D7439322B3B626173653D
6974752D7439322B0D0A436F6E74656E742D44697370
6F736974696F6E3A207369676E616C3B68616E646C69
6E673D6F7074696F6E616C0D0A436F6E74656E742D4C
656E6774683A20202020360D0A0D0A0C02000280903B
3084662BD30A00610200006102000000010003736970
0000030004000000030A2E458E00040004000000030A
DF6E4B000513C400000000000613C400000000000700
0375647000000202255349502F322E3020323030204F
4B0D0A46726F6D3A2022383539393932333030393622
203C7369703A38353939393233303039364074696D62
72314E2E636F6D3B757365723D70686F6E653E3B7461
673D61386464336331622D303030372D303163642D30
3030302D303030300D0A546F3A203C7369703A363030
30313032333038303037323630303138407A726A382E
76316E3B757365723D70686F6E653E3B7461673D3039
3030343037383536353839390D0A5669613A20534950
2F322E302F554450202031302E3232332E3131302E37
353A353036303B6272616E63683D7A39684734624B32
353533316431333B72656365697665643D31302E3232
332E3131302E37350D0A43616C6C2D49443A20363764
3938356230316462343037622D303030372D30316364
2D303030302D303030304031302E3232332E3131302E
37350D0A435365713A2035204259450D0A416C6C6F77
3A20494E564954452C41434B2C4F5054494F4E532C42
59452C43414E43454C2C494E464F2C505241434B2C55
50444154450D0A4D494D452D56657273696F6E3A2031
2E300D0A436F6E74656E742D547970653A206170706C
69636174696F6E2F697375703B76657273696F6E3D69
74752D7439322B3B626173653D6974752D7439322B0D
0A436F6E74656E742D446973706F736974696F6E3A20
7369676E616C3B68616E646C696E673D726571756972
65640D0A436F6E74656E742D4C656E6774683A202020
20320D0A0D0A1000

END
♦ftK
tail -n 0 -f AD-12_20240522_0005.curr

ACT     ZRJO08                    AD-12   TIME 240702 1652  CLUSTER
INTEGRATED SUBSCRIBER TRACER MESSAGE
TSID
 0-186

DATA
3930846689CF0300BE050000BE050000000100037369
700000030004000000030ADF6E4B0004000400000003
0A2E458E000513C400000000000613C4000000000007
00037564700000020582494E56495445207369703A36
303030313032333038303037323630303138407A726A
382E76316E3B757365723D70686F6E65205349502F32
2E300D0A46726F6D3A20223835393939323330303936
22203C7369703A38353939393233303039364074696D
6272314E2E636F6D3B757365723D70686F6E653E3B74
61673D61386464336331622D303030372D303163642D
303030302D303030300D0A546F3A203C7369703A3630
3030313032333038303037323630303138407A726A38
2E76316E3B757365723D70686F6E653E0D0A4D61782D
466F7277617264733A2036390D0A5669613A20534950
2F322E302F554450202031302E3232332E3131302E37
353A353036303B6272616E63683D7A39684734624B34
386635616166320D0A43616C6C2D49443A2036376439
38356230316462343037622D303030372D303163642D
303030302D303030304031302E3232332E3131302E37
350D0A435365713A203120494E564954450D0A436F6E
746163743A203C7369703A3835393939323330303936
4031302E3232332E3131302E37353A353036303E0D0A
416C6C6F773A20494E564954452C41434B2C4F505449
4F4E532C4259452C43414E43454C2C52454749535445
522C494E464F2C505241434B2C5550444154452C5355
425343524942452C4E4F544946592C4D455353414745
2C52454645522C5055424C4953480D0A537570706F72
7465643A2031303072656C0D0A502D41737365727465
642D4964656E746974793A203C7369703A3835393939
3233303039364074696D6272314E2E636F6D3B757365
723D70686F6E653E0D0A502D4368617267696E672D56
6563746F723A20696369642D76616C75653D34464632
3944383631332D303730322D31363532303730393B69
6369642D67656E6572617465642D61743D424330302E
5A52434530392E54494D3B6F7269672D696F693D5A52
434530392E54494D0D0A4163636570743A206170706C
69636174696F6E2F7364702C6170706C69636174696F
6E2F697375702C6170706C69636174696F6E2F786D6C
0D0A436F6E74656E742D547970653A206D756C746970
6172742F6D697865643B626F756E646172793D756E69
7175652D626F756E646172792D310D0A4D494D452D56
657273696F6E3A20312E300D0A436F6E74656E742D4C
656E6774683A20203534370D0A0D0A2D2D756E697175
652D626F756E646172792D310D0A436F6E74656E742D
547970653A206170706C69636174696F6E2F7364700D
0A0D0A763D300D0A6F3D2D2035373733303530203537
373330353020494E2049503420302E302E302E300D0A
733D494D53530D0A633D494E204950342031302E3231
322E372E3136350D0A743D3020300D0A613D73656E64
726563760D0A6D3D617564696F203332313934205254
502F41565020313820382039390D0A633D494E204950
342031302E3231322E372E3136350D0A623D52523A30
0D0A623D52533A300D0A613D666D74703A313820616E
6E6578623D7965730D0A613D7274706D61703A393920
74656C6570686F6E652D6576656E742F383030300D0A
613D666D74703A393920302D31350D0A613D6D617870
74696D653A34300D0A0D0A2D2D756E697175652D626F
756E646172792D310D0A436F6E74656E742D54797065
3A206170706C69636174696F6E2F697375703B766572
73696F6E3D6974752D7439322B3B626173653D697475
2D7439322B0D0A436F6E74656E742D446973706F7369
74696F6E3A207369676E616C3B68616E646C696E673D
6F7074696F6E616C0D0A0D0A011160010A00020E0C83
10060001328000270610080A088313589929039006F4
05ABB78F918B1D038090A36F088314800027061008C0
090683105899290390063A0643055000000031020000
39086FC0C0D03AD031C0000D0A2D2D756E697175652D
626F756E646172792D312D2D393084669D0604009A01
00009A01000000010003736970000003000400000003
0A2E458E00040004000000030ADF6E4B000513C40000
0000000613C40000000000070003756470000002015E
5349502F322E302031303020547279696E670D0A4672
6F6D3A2022383539393932333030393622203C736970
3A38353939393233303039364074696D6272314E2E63
6F6D3B757365723D70686F6E653E3B7461673D613864
64336331622D303030372D303163642D303030302D30
3030300D0A546F3A203C7369703A3630303031303233
3038303037323630303138407A726A382E76316E3B75
7365723D70686F6E653E0D0A5669613A205349502F32
2E302F554450202031302E3232332E3131302E37353A
353036303B6272616E63683D7A39684734624B343866
35616166323B72656365697665643D31302E3232332E
3131302E37350D0A43616C6C2D49443A203637643938
356230316462343037622D303030372D303163642D30
3030302D303030304031302E3232332E3131302E3735
0D0A435365713A203120494E564954450D0A436F6E74
656E742D4C656E6774683A20202020300D0A0D0A3930
84666E2307002E0400002E0400000001000373697000
00030004000000030A2E458E00040004000000030ADF
6E4B000513C400000000000613C40000000000070003
75647000000203F25349502F322E3020313833205365
7373696F6E2050726F67726573730D0A46726F6D3A20
22383539393932333030393622203C7369703A383539
39393233303039364074696D6272314E2E636F6D3B75
7365723D70686F6E653E3B7461673D61386464336331
622D303030372D303163642D303030302D303030300D
0A546F3A203C7369703A363030303130323330383030
37323630303138407A726A382E76316E3B757365723D
70686F6E653E3B7461673D3039303034303738353635
3839390D0A5669613A205349502F322E302F55445020
2031302E3232332E3131302E37353A353036303B6272
616E63683D7A39684734624B34386635616166323B72
656365697665643D31302E3232332E3131302E37350D
0A5265636F72642D526F7574653A203C7369703A4243
30302E5A524A4F30382E54494D3A353036303B747261
6E73706F72743D5544503B6C723E0D0A43616C6C2D49
443A203637643938356230316462343037622D303030
372D303163642D303030302D303030304031302E3232
332E3131302E37350D0A435365713A203120494E5649
54450D0A502D4368617267696E672D566563746F723A
20696369642D76616C75653D34464632394438363133
2D303730322D31363532303730393B696369642D6765
6E6572617465642D61743D424330302E5A5243453039
2E54494D3B6F7269672D696F693D5A52434530392E54
494D3B7465726D2D696F693D5A524A4F30382E54494D
0D0A526571756972653A2031303072656C0D0A525365
713A203530300D0A416C6C6F773A20494E564954452C
41434B2C4F5054494F4E532C4259452C43414E43454C
2C494E464F2C505241434B2C5550444154450D0A436F
6E74656E742D547970653A206170706C69636174696F
6E2F7364700D0A436F6E746163743A203C7369703A42
4330302E5A524A4F30382E54494D3A353036303B7472
616E73706F72743D5544503E0D0A436F6E74656E742D
4C656E6774683A20203237360D0A0D0A763D300D0A6F
3D2D2032363638323337203236363832333720494E20
49503420424330302E5A524A4F30382E54494D0D0A73
3D2D0D0A633D494E204950342031302E3232302E3130
2E3130300D0A743D3020300D0A613D73656E64726563
760D0A6D3D617564696F203234393930205254502F41
56502031382039390D0A633D494E204950342031302E
3232302E31302E3130300D0A623D52523A300D0A623D
52533A300D0A613D7274706D61703A31382047373239
2F383030300D0A613D666D74703A313820616E6E6578
623D7965730D0A613D7274706D61703A39392074656C
6570686F6E652D6576656E742F383030300D0A613D66
6D74703A393920302D31350D0A613D6D61787074696D
653A34300D0A393084669B2707007F0200007F020000
000100037369700000030004000000030ADF6E4B0004
0004000000030A2E458E000513C400000000000613C4
00000000000700037564700000020243505241434B20
7369703A424330302E5A524A4F30382E54494D3A3530
36303B7472616E73706F72743D554450205349502F32
2E300D0A46726F6D3A20223835393939323330303936
22203C7369703A38353939393233303039364074696D
6272314E2E636F6D3B757365723D70686F6E653E3B74
61673D61386464336331622D303030372D303163642D
303030302D303030300D0A546F3A203C7369703A3630
3030313032333038303037323630303138407A726A38
2E76316E3B757365723D70686F6E653E3B7461673D30
393030343037383536353839390D0A4D61782D466F72
77617264733A2036390D0A5669613A205349502F322E
302F554450202031302E3232332E3131302E37353A35
3036303B6272616E63683D7A39684734624B35616662
643133300D0A526F7574653A203C7369703A42433030
2E5A524A4F30382E54494D3A353036303B7472616E73
706F72743D5544503B6C723E0D0A43616C6C2D49443A
203637643938356230316462343037622D303030372D
303163642D303030302D303030304031302E3232332E
3131302E37350D0A435365713A203220505241434B0D
0A5241636B3A20353030203120494E564954450D0A50
2D4368617267696E672D566563746F723A2069636964
2D76616C75653D344646323944383631332D30373032
2D31363532303730393B696369642D67656E65726174
65642D61743D424330302E5A52434530392E54494D3B
6F7269672D696F693D5A52434530392E54494D0D0A43
6F6E74656E742D4C656E6774683A20202020300D0A0D
0A39308466462A0700A8010000A80100000001000373
69700000030004000000030A2E458E00040004000000
030ADF6E4B000513C400000000000613C40000000000
070003756470000002016C5349502F322E3020323030
204F4B0D0A46726F6D3A202238353939393233303039
3622203C7369703A3835393939323330303936407469
6D6272314E2E636F6D3B757365723D70686F6E653E3B
7461673D61386464336331622D303030372D30316364
2D303030302D303030300D0A546F3A203C7369703A36
303030313032333038303037323630303138407A726A
382E76316E3B757365723D70686F6E653E3B7461673D
30393030343037383536353839390D0A5669613A2053
49502F322E302F554450202031302E3232332E313130
2E37353A353036303B6272616E63683D7A3968473462
4B35616662643133303B72656365697665643D31302E
3232332E3131302E37350D0A43616C6C2D49443A2036
37643938356230316462343037622D303030372D3031
63642D303030302D303030304031302E3232332E3131
302E37350D0A435365713A203220505241434B0D0A43
6F6E74656E742D4C656E6774683A20202020300D0A0D
0A393084668E2A07004C0300004C0300000001000373
69700000030004000000030A2E458E00040004000000
030ADF6E4B000513C400000000000613C40000000000
07000375647000000203105349502F322E3020313833
2053657373696F6E2050726F67726573730D0A46726F
6D3A2022383539393932333030393622203C7369703A
38353939393233303039364074696D6272314E2E636F
6D3B757365723D70686F6E653E3B7461673D61386464
336331622D303030372D303163642D303030302D3030
30300D0A546F3A203C7369703A363030303130323330
38303037323630303138407A726A382E76316E3B7573
65723D70686F6E653E3B7461673D3039303034303738
3536353839390D0A5669613A205349502F322E302F55
4450202031302E3232332E3131302E37353A35303630
3B6272616E63683D7A39684734624B34386635616166
323B72656365697665643D31302E3232332E3131302E
37350D0A5265636F72642D526F7574653A203C736970
3A424330302E5A524A4F30382E54494D3A353036303B
7472616E73706F72743D5544503B6C723E0D0A43616C
6C2D49443A203637643938356230316462343037622D
303030372D303163642D303030302D30303030403130
2E3232332E3131302E37350D0A435365713A20312049
4E564954450D0A502D4368617267696E672D56656374
6F723A20696369642D76616C75653D34464632394438
3631332D303730322D31363532303730393B69636964
2D67656E6572617465642D61743D424330302E5A5243
4530392E54494D3B6F7269672D696F693D5A52434530
392E54494D3B7465726D2D696F693D5A524A4F30382E
54494D0D0A526571756972653A2031303072656C0D0A
525365713A203530310D0A436F6E74656E742D547970
653A206170706C69636174696F6E2F697375703B7665
7273696F6E3D6974752D7439322B3B626173653D6974
752D7439322B0D0A436F6E74656E742D446973706F73
6974696F6E3A207369676E616C3B68616E646C696E67
3D72657175697265640D0A4D494D452D56657273696F
6E3A20312E300D0A436F6E746163743A203C7369703A
424330302E5A524A4F30382E54494D3A353036303B74
72616E73706F72743D5544503E0D0A436F6E74656E74
2D4C656E6774683A20202020380D0A0D0A0600200129
01010039308466D82A07009A0300009A030000000100
037369700000030004000000030A2E458E0004000400
0000030ADF6E4B000513C400000000000613C4000000
0000070003756470000002035E5349502F322E302032
3030204F4B0D0A46726F6D3A20223835393939323330
30393622203C7369703A383539393932333030393640
74696D6272314E2E636F6D3B757365723D70686F6E65
3E3B7461673D61386464336331622D303030372D3031
63642D303030302D303030300D0A546F3A203C736970
3A36303030313032333038303037323630303138407A
726A382E76316E3B757365723D70686F6E653E3B7461
673D30393030343037383536353839390D0A5669613A
205349502F322E302F554450202031302E3232332E31
31302E37353A353036303B6272616E63683D7A396847
34624B34386635616166323B72656365697665643D31
302E3232332E3131302E37350D0A5265636F72642D52
6F7574653A203C7369703A424330302E5A524A4F3038
2E54494D3A353036303B7472616E73706F72743D5544
503B6C723E0D0A43616C6C2D49443A20363764393835
6230316462343037622D303030372D303163642D3030
30302D303030304031302E3232332E3131302E37350D
0A435365713A203120494E564954450D0A416C6C6F77
3A20494E564954452C41434B2C4F5054494F4E532C42
59452C43414E43454C2C494E464F2C505241434B2C55
50444154450D0A502D4368617267696E672D56656374
6F723A20696369642D76616C75653D34464632394438
3631332D303730322D31363532303730393B69636964
2D67656E6572617465642D61743D424330302E5A5243
4530392E54494D3B6F7269672D696F693D5A52434530
392E54494D3B7465726D2D696F693D5A524A4F30382E
54494D0D0A4163636570743A206170706C6963617469
6F6E2F7364702C6170706C69636174696F6E2F697375
702C6D756C7469706172742F6D697865640D0A4D494D
452D56657273696F6E3A20312E300D0A436F6E74656E
742D547970653A206170706C69636174696F6E2F6973
75703B76657273696F6E3D6974752D7439322B3B6261
73653D6974752D7439322B0D0A436F6E74656E742D44
6973706F736974696F6E3A207369676E616C3B68616E
646C696E673D72657175697265640D0A436F6E746163
743A203C7369703A424330302E5A524A4F30382E5449
4D3A353036303B7472616E73706F72743D5544503E0D
0A436F6E74656E742D4C656E6774683A20202031340D
0A0D0A0901110200002901012102000B00393084663F
320700FC010000FC0100000001000373697000000300
04000000030ADF6E4B00040004000000030A2E458E00
0513C400000000000613C40000000000070003756470
00000201C041434B207369703A424330302E5A524A4F
30382E54494D3A353036303B7472616E73706F72743D
554450205349502F322E300D0A46726F6D3A20223835
39393932333030393622203C7369703A383539393932
33303039364074696D6272314E2E636F6D3B75736572
3D70686F6E653E3B7461673D61386464336331622D30
3030372D303163642D303030302D303030300D0A546F
3A203C7369703A363030303130323330383030373236
30303138407A726A382E76316E3B757365723D70686F
6E653E3B7461673D3039303034303738353635383939
0D0A4D61782D466F7277617264733A2036390D0A5669
613A205349502F322E302F554450202031302E323233
2E3131302E37353A353036303B6272616E63683D7A39
684734624B343866356161663261636B0D0A526F7574
653A203C7369703A424330302E5A524A4F30382E5449
4D3A353036303B7472616E73706F72743D5544503B6C
723E0D0A43616C6C2D49443A20363764393835623031
6462343037622D303030372D303163642D303030302D
303030304031302E3232332E3131302E37350D0A4353
65713A20312041434B0D0A436F6E74656E742D4C656E
6774683A20202020300D0A0D0A39308466013307007F
0200007F020000000100037369700000030004000000
030ADF6E4B00040004000000030A2E458E000513C400
000000000613C4000000000007000375647000000202
43505241434B207369703A424330302E5A524A4F3038
2E54494D3A353036303B7472616E73706F72743D5544
50205349502F322E300D0A46726F6D3A202238353939
3932333030393622203C7369703A3835393939323330
3039364074696D6272314E2E636F6D3B757365723D70
686F6E653E3B7461673D61386464336331622D303030
372D303163642D303030302D303030300D0A546F3A20
3C7369703A3630303031303233303830303732363030
3138407A726A382E76316E3B757365723D70686F6E65
3E3B7461673D30393030343037383536353839390D0A
4D61782D466F7277617264733A2036390D0A5669613A
205349502F322E302F554450202031302E3232332E31
31302E37353A353036303B6272616E63683D7A396847
34624B62373731376536370D0A526F7574653A203C73
69703A424330302E5A524A4F30382E54494D3A353036
303B7472616E73706F72743D5544503B6C723E0D0A43
616C6C2D49443A203637643938356230316462343037
622D303030372D303163642D303030302D3030303040
31302E3232332E3131302E37350D0A435365713A2033
20505241434B0D0A5241636B3A20353031203120494E
564954450D0A502D4368617267696E672D566563746F
723A20696369642D76616C75653D3446463239443836
31332D303730322D31363532303730393B696369642D
67656E6572617465642D61743D424330302E5A524345
30392E54494D3B6F7269672D696F693D5A5243453039
2E54494D0D0A436F6E74656E742D4C656E6774683A20
202020300D0A0D0A393084664D340700A8010000A801
0000000100037369700000030004000000030A2E458E
00040004000000030ADF6E4B000513C4000000000006
13C40000000000070003756470000002016C5349502F
322E3020323030204F4B0D0A46726F6D3A2022383539
393932333030393622203C7369703A38353939393233
303039364074696D6272314E2E636F6D3B757365723D
70686F6E653E3B7461673D61386464336331622D3030
30372D303163642D303030302D303030300D0A546F3A
203C7369703A36303030313032333038303037323630
303138407A726A382E76316E3B757365723D70686F6E
653E3B7461673D30393030343037383536353839390D
0A5669613A205349502F322E302F554450202031302E
3232332E3131302E37353A353036303B6272616E6368
3D7A39684734624B62373731376536373B7265636569
7665643D31302E3232332E3131302E37350D0A43616C
6C2D49443A203637643938356230316462343037622D
303030372D303163642D303030302D30303030403130
2E3232332E3131302E37350D0A435365713A20332050
5241434B0D0A436F6E74656E742D4C656E6774683A20
202020300D0A0D0A

END
♦ftK
ACT     ZRJO08                    AD-12   TIME 240702 1652  CLUSTER
INTEGRATED SUBSCRIBER TRACER MESSAGE
TSID
 0-186

DATA
39308466EF340700F2020000F2020000000100037369
700000030004000000030ADF6E4B0004000400000003
0A2E458E000513C400000000000613C4000000000007
000375647000000202B6494E464F207369703A424330
302E5A524A4F30382E54494D3A353036303B7472616E
73706F72743D554450205349502F322E300D0A46726F
6D3A2022383539393932333030393622203C7369703A
38353939393233303039364074696D6272314E2E636F
6D3B757365723D70686F6E653E3B7461673D61386464
336331622D303030372D303163642D303030302D3030
30300D0A546F3A203C7369703A363030303130323330
38303037323630303138407A726A382E76316E3B7573
65723D70686F6E653E3B7461673D3039303034303738
3536353839390D0A4D61782D466F7277617264733A20
37300D0A5669613A205349502F322E302F5544502020
31302E3232332E3131302E37353A353036303B627261
6E63683D7A39684734624B32343833333133350D0A52
6F7574653A203C7369703A424330302E5A524A4F3038
2E54494D3A353036303B7472616E73706F72743D5544
503B6C723E0D0A43616C6C2D49443A20363764393835
6230316462343037622D303030372D303163642D3030
30302D303030304031302E3232332E3131302E37350D
0A435365713A203420494E464F0D0A502D4368617267
696E672D566563746F723A20696369642D76616C7565
3D344646323944383631332D303730322D3136353230
3730393B696369642D67656E6572617465642D61743D
424330302E5A52434530392E54494D3B6F7269672D69
6F693D5A52434530392E54494D3B7465726D2D696F69
3D5A524A4F30382E54494D0D0A436F6E74656E742D54
7970653A206170706C69636174696F6E2F697375703B
76657273696F6E3D6974752D7439322B3B626173653D
6974752D7439322B0D0A436F6E74656E742D44697370
6F736974696F6E3A207369676E616C3B68616E646C69
6E673D6F7074696F6E616C0D0A436F6E74656E742D4C
656E6774683A20202020370D0A0D0A2F02000383E329
393084669C3607003202000032020000000100037369
700000030004000000030A2E458E0004000400000003
0ADF6E4B000513C400000000000613C4000000000007
000375647000000201F65349502F322E302034303020
42616420526571756573740D0A46726F6D3A20223835
39393932333030393622203C7369703A383539393932
33303039364074696D6272314E2E636F6D3B75736572
3D70686F6E653E3B7461673D61386464336331622D30
3030372D303163642D303030302D303030300D0A546F
3A203C7369703A363030303130323330383030373236
30303138407A726A382E76316E3B757365723D70686F
6E653E3B7461673D3039303034303738353635383939
0D0A5669613A205349502F322E302F55445020203130
2E3232332E3131302E37353A353036303B6272616E63
683D7A39684734624B32343833333133353B72656365
697665643D31302E3232332E3131302E37350D0A4361
6C6C2D49443A20363764393835623031646234303762
2D303030372D303163642D303030302D303030304031
302E3232332E3131302E37350D0A435365713A203420
494E464F0D0A502D4368617267696E672D566563746F
723A20696369642D76616C75653D3446463239443836
31332D303730322D31363532303730393B696369642D
67656E6572617465642D61743D424330302E5A524345
30392E54494D3B6F7269672D696F693D5A5243453039
2E54494D3B7465726D2D696F693D5A524A4F30382E54
494D0D0A436F6E74656E742D4C656E6774683A202020
20300D0A0D0A

END
♦ftK
ACT     ZRJO08                    AD-12   TIME 240702 1652  CLUSTER
INTEGRATED SUBSCRIBER TRACER MESSAGE
TSID
 0-186

DATA
3B308466F2D00A000703000007030000000100037369
700000030004000000030ADF6E4B0004000400000003
0A2E458E000513C400000000000613C4000000000007
000375647000000202CB425945207369703A42433030
2E5A524A4F30382E54494D3A353036303B7472616E73
706F72743D554450205349502F322E300D0A46726F6D
3A2022383539393932333030393622203C7369703A38
353939393233303039364074696D6272314E2E636F6D
3B757365723D70686F6E653E3B7461673D6138646433
6331622D303030372D303163642D303030302D303030
300D0A546F3A203C7369703A36303030313032333038
303037323630303138407A726A382E76316E3B757365
723D70686F6E653E3B7461673D303930303430373835
36353839390D0A4D61782D466F7277617264733A2037
300D0A5669613A205349502F322E302F554450202031
302E3232332E3131302E37353A353036303B6272616E
63683D7A39684734624B32353533316431330D0A526F
7574653A203C7369703A424330302E5A524A4F30382E
54494D3A353036303B7472616E73706F72743D554450
3B6C723E0D0A43616C6C2D49443A2036376439383562
30316462343037622D303030372D303163642D303030
302D303030304031302E3232332E3131302E37350D0A
435365713A2035204259450D0A526561736F6E3A2051
2E3835303B63617573653D31360D0A502D4368617267
696E672D566563746F723A20696369642D76616C7565
3D344646323944383631332D303730322D3136353230
3730393B696369642D67656E6572617465642D61743D
424330302E5A52434530392E54494D3B6F7269672D69
6F693D5A52434530392E54494D3B7465726D2D696F69
3D5A524A4F30382E54494D0D0A436F6E74656E742D54
7970653A206170706C69636174696F6E2F697375703B
76657273696F6E3D6974752D7439322B3B626173653D
6974752D7439322B0D0A436F6E74656E742D44697370
6F736974696F6E3A207369676E616C3B68616E646C69
6E673D6F7074696F6E616C0D0A436F6E74656E742D4C
656E6774683A20202020360D0A0D0A0C02000280903B
3084662BD30A00610200006102000000010003736970
0000030004000000030A2E458E00040004000000030A
DF6E4B000513C400000000000613C400000000000700
0375647000000202255349502F322E3020323030204F
4B0D0A46726F6D3A2022383539393932333030393622
203C7369703A38353939393233303039364074696D62
72314E2E636F6D3B757365723D70686F6E653E3B7461
673D61386464336331622D303030372D303163642D30
3030302D303030300D0A546F3A203C7369703A363030
30313032333038303037323630303138407A726A382E
76316E3B757365723D70686F6E653E3B7461673D3039
3030343037383536353839390D0A5669613A20534950
2F322E302F554450202031302E3232332E3131302E37
353A353036303B6272616E63683D7A39684734624B32
353533316431333B72656365697665643D31302E3232
332E3131302E37350D0A43616C6C2D49443A20363764
3938356230316462343037622D303030372D30316364
2D303030302D303030304031302E3232332E3131302E
37350D0A435365713A2035204259450D0A416C6C6F77
3A20494E564954452C41434B2C4F5054494F4E532C42
59452C43414E43454C2C494E464F2C505241434B2C55
50444154450D0A4D494D452D56657273696F6E3A2031
2E300D0A436F6E74656E742D547970653A206170706C
69636174696F6E2F697375703B76657273696F6E3D69
74752D7439322B3B626173653D6974752D7439322B0D
0A436F6E74656E742D446973706F736974696F6E3A20
7369676E616C3B68616E646C696E673D726571756972
65640D0A436F6E74656E742D4C656E6774683A202020
20320D0A0D0A1000

END
♦ftK
b'90\x84f\x89\xcf\x03\x00\xbe\x05\x00\x00\xbe\x05\x00\x00\x00\x01\x00\x03sip\x00\x00\x03\x00\x04\x00\x00\x00\x03\n\xdfnK\x00\x04\x00\x04\x00\x00\x00\x03\n.E\x8e\x00\x05\x13\xc4\x00\x00\x00\x00\x00\x06\x13\xc4\x00\x00\x00\x00\x00\x07\x00\x03udp\x00\x00\x02\x05\x82INVITE sip:6000102308007260018@zrj8.v1n;user=phone SIP/2.0\r\nFrom: "85999230096" <sip:85999230096@timbr1N.com;user=phone>;tag=a8dd3c1b-0007-01cd-0000-0000\r\nTo: <sip:6000102308007260018@zrj8.v1n;user=phone>\r\nMax-Forwards: 69\r\nVia: SIP/2.0/UDP  10.223.110.75:5060;branch=z9hG4bK48f5aaf2\r\nCall-ID: 67d985b01db407b-0007-01cd-0000-0000@10.223.110.75\r\nCSeq: 1 INVITE\r\nContact: <sip:85999230096@10.223.110.75:5060>\r\nAllow: INVITE,ACK,OPTIONS,BYE,CANCEL,REGISTER,INFO,PRACK,UPDATE,SUBSCRIBE,NOTIFY,MESSAGE,REFER,PUBLISH\r\nSupported: 100rel\r\nP-Asserted-Identity: <sip:85999230096@timbr1N.com;user=phone>\r\nP-Charging-Vector: icid-value=4FF29D8613-0702-16520709;icid-generated-at=BC00.ZRCE09.TIM;orig-ioi=ZRCE09.TIM\r\nAccept: application/sdp,application/isup,application/xml\r\nContent-Type: multipart/mixed;boundary=unique-boundary-1\r\nMIME-Version: 1.0\r\nContent-Length:  547\r\n\r\n--unique-boundary-1\r\nContent-Type: application/sdp\r\n\r\nv=0\r\no=- 5773050 5773050 IN IP4 0.0.0.0\r\ns=IMSS\r\nc=IN IP4 10.212.7.165\r\nt=0 0\r\na=sendrecv\r\nm=audio 32194 RTP/AVP 18 8 99\r\nc=IN IP4 10.212.7.165\r\nb=RR:0\r\nb=RS:0\r\na=fmtp:18 annexb=yes\r\na=rtpmap:99 telephone-event/8000\r\na=fmtp:99 0-15\r\na=maxptime:40\r\n\r\n--unique-boundary-1\r\nContent-Type: application/isup;version=itu-t92+;base=itu-t92+\r\nContent-Disposition: signal;handling=optional\r\n\r\n\x01\x11`\x01\n\x00\x02\x0e\x0c\x83\x10\x06\x00\x012\x80\x00\'\x06\x10\x08\n\x08\x83\x13X\x99)\x03\x90\x06\xf4\x05\xab\xb7\x8f\x91\x8b\x1d\x03\x80\x90\xa3o\x08\x83\x14\x80\x00\'\x06\x10\x08\xc0\t\x06\x83\x10X\x99)\x03\x90\x06:\x06C\x05P\x00\x00\x001\x02\x00\x009\x08o\xc0\xc0\xd0:\xd01\xc0\x00\r\n--unique-boundary-1--90\x84f\x9d\x06\x04\x00\x9a\x01\x00\x00\x9a\x01\x00\x00\x00\x01\x00\x03sip\x00\x00\x03\x00\x04\x00\x00\x00\x03\n.E\x8e\x00\x04\x00\x04\x00\x00\x00\x03\n\xdfnK\x00\x05\x13\xc4\x00\x00\x00\x00\x00\x06\x13\xc4\x00\x00\x00\x00\x00\x07\x00\x03udp\x00\x00\x02\x01^SIP/2.0 100 Trying\r\nFrom: "85999230096" <sip:85999230096@timbr1N.com;user=phone>;tag=a8dd3c1b-0007-01cd-0000-0000\r\nTo: <sip:6000102308007260018@zrj8.v1n;user=phone>\r\nVia: SIP/2.0/UDP  10.223.110.75:5060;branch=z9hG4bK48f5aaf2;received=10.223.110.75\r\nCall-ID: 67d985b01db407b-0007-01cd-0000-0000@10.223.110.75\r\nCSeq: 1 INVITE\r\nContent-Length:    0\r\n\r\n90\x84fn#\x07\x00.\x04\x00\x00.\x04\x00\x00\x00\x01\x00\x03sip\x00\x00\x03\x00\x04\x00\x00\x00\x03\n.E\x8e\x00\x04\x00\x04\x00\x00\x00\x03\n\xdfnK\x00\x05\x13\xc4\x00\x00\x00\x00\x00\x06\x13\xc4\x00\x00\x00\x00\x00\x07\x00\x03udp\x00\x00\x02\x03\xf2SIP/2.0 183 Session Progress\r\nFrom: "85999230096" <sip:85999230096@timbr1N.com;user=phone>;tag=a8dd3c1b-0007-01cd-0000-0000\r\nTo: <sip:6000102308007260018@zrj8.v1n;user=phone>;tag=09004078565899\r\nVia: SIP/2.0/UDP  10.223.110.75:5060;branch=z9hG4bK48f5aaf2;received=10.223.110.75\r\nRecord-Route: <sip:BC00.ZRJO08.TIM:5060;transport=UDP;lr>\r\nCall-ID: 67d985b01db407b-0007-01cd-0000-0000@10.223.110.75\r\nCSeq: 1 INVITE\r\nP-Charging-Vector: icid-value=4FF29D8613-0702-16520709;icid-generated-at=BC00.ZRCE09.TIM;orig-ioi=ZRCE09.TIM;term-ioi=ZRJO08.TIM\r\nRequire: 100rel\r\nRSeq: 500\r\nAllow: INVITE,ACK,OPTIONS,BYE,CANCEL,INFO,PRACK,UPDATE\r\nContent-Type: 
application/sdp\r\nContact: <sip:BC00.ZRJO08.TIM:5060;transport=UDP>\r\nContent-Length:  276\r\n\r\nv=0\r\no=- 2668237 2668237 IN IP4 BC00.ZRJO08.TIM\r\ns=-\r\nc=IN IP4 10.220.10.100\r\nt=0 0\r\na=sendrecv\r\nm=audio 24990 RTP/AVP 18 99\r\nc=IN IP4 10.220.10.100\r\nb=RR:0\r\nb=RS:0\r\na=rtpmap:18 G729/8000\r\na=fmtp:18 annexb=yes\r\na=rtpmap:99 telephone-event/8000\r\na=fmtp:99 0-15\r\na=maxptime:40\r\n90\x84f\x9b\'\x07\x00\x7f\x02\x00\x00\x7f\x02\x00\x00\x00\x01\x00\x03sip\x00\x00\x03\x00\x04\x00\x00\x00\x03\n\xdfnK\x00\x04\x00\x04\x00\x00\x00\x03\n.E\x8e\x00\x05\x13\xc4\x00\x00\x00\x00\x00\x06\x13\xc4\x00\x00\x00\x00\x00\x07\x00\x03udp\x00\x00\x02\x02CPRACK sip:BC00.ZRJO08.TIM:5060;transport=UDP SIP/2.0\r\nFrom: "85999230096" <sip:85999230096@timbr1N.com;user=phone>;tag=a8dd3c1b-0007-01cd-0000-0000\r\nTo: <sip:6000102308007260018@zrj8.v1n;user=phone>;tag=09004078565899\r\nMax-Forwards: 69\r\nVia: 
SIP/2.0/UDP  10.223.110.75:5060;branch=z9hG4bK5afbd130\r\nRoute: <sip:BC00.ZRJO08.TIM:5060;transport=UDP;lr>\r\nCall-ID: 67d985b01db407b-0007-01cd-0000-0000@10.223.110.75\r\nCSeq: 2 PRACK\r\nRAck: 500 1 INVITE\r\nP-Charging-Vector: icid-value=4FF29D8613-0702-16520709;icid-generated-at=BC00.ZRCE09.TIM;orig-ioi=ZRCE09.TIM\r\nContent-Length:    0\r\n\r\n90\x84fF*\x07\x00\xa8\x01\x00\x00\xa8\x01\x00\x00\x00\x01\x00\x03sip\x00\x00\x03\x00\x04\x00\x00\x00\x03\n.E\x8e\x00\x04\x00\x04\x00\x00\x00\x03\n\xdfnK\x00\x05\x13\xc4\x00\x00\x00\x00\x00\x06\x13\xc4\x00\x00\x00\x00\x00\x07\x00\x03udp\x00\x00\x02\x01lSIP/2.0 200 OK\r\nFrom: "85999230096" <sip:85999230096@timbr1N.com;user=phone>;tag=a8dd3c1b-0007-01cd-0000-0000\r\nTo: <sip:6000102308007260018@zrj8.v1n;user=phone>;tag=09004078565899\r\nVia: SIP/2.0/UDP  10.223.110.75:5060;branch=z9hG4bK5afbd130;received=10.223.110.75\r\nCall-ID: 67d985b01db407b-0007-01cd-0000-0000@10.223.110.75\r\nCSeq: 2 PRACK\r\nContent-Length:    0\r\n\r\n90\x84f\x8e*\x07\x00L\x03\x00\x00L\x03\x00\x00\x00\x01\x00\x03sip\x00\x00\x03\x00\x04\x00\x00\x00\x03\n.E\x8e\x00\x04\x00\x04\x00\x00\x00\x03\n\xdfnK\x00\x05\x13\xc4\x00\x00\x00\x00\x00\x06\x13\xc4\x00\x00\x00\x00\x00\x07\x00\x03udp\x00\x00\x02\x03\x10SIP/2.0 183 Session Progress\r\nFrom: "85999230096" <sip:85999230096@timbr1N.com;user=phone>;tag=a8dd3c1b-0007-01cd-0000-0000\r\nTo: <sip:6000102308007260018@zrj8.v1n;user=phone>;tag=09004078565899\r\nVia: SIP/2.0/UDP  10.223.110.75:5060;branch=z9hG4bK48f5aaf2;received=10.223.110.75\r\nRecord-Route: <sip:BC00.ZRJO08.TIM:5060;transport=UDP;lr>\r\nCall-ID: 67d985b01db407b-0007-01cd-0000-0000@10.223.110.75\r\nCSeq: 1 INVITE\r\nP-Charging-Vector: icid-value=4FF29D8613-0702-16520709;icid-generated-at=BC00.ZRCE09.TIM;orig-ioi=ZRCE09.TIM;term-ioi=ZRJO08.TIM\r\nRequire: 100rel\r\nRSeq: 501\r\nContent-Type: application/isup;version=itu-t92+;base=itu-t92+\r\nContent-Disposition: signal;handling=required\r\nMIME-Version: 1.0\r\nContact: <sip:BC00.ZRJO08.TIM:5060;transport=UDP>\r\nContent-Length:    8\r\n\r\n\x06\x00 \x01)\x01\x01\x0090\x84f\xd8*\x07\x00\x9a\x03\x00\x00\x9a\x03\x00\x00\x00\x01\x00\x03sip\x00\x00\x03\x00\x04\x00\x00\x00\x03\n.E\x8e\x00\x04\x00\x04\x00\x00\x00\x03\n\xdfnK\x00\x05\x13\xc4\x00\x00\x00\x00\x00\x06\x13\xc4\x00\x00\x00\x00\x00\x07\x00\x03udp\x00\x00\x02\x03^SIP/2.0 200 OK\r\nFrom: "85999230096" <sip:85999230096@timbr1N.com;user=phone>;tag=a8dd3c1b-0007-01cd-0000-0000\r\nTo: <sip:6000102308007260018@zrj8.v1n;user=phone>;tag=09004078565899\r\nVia: SIP/2.0/UDP  10.223.110.75:5060;branch=z9hG4bK48f5aaf2;received=10.223.110.75\r\nRecord-Route: <sip:BC00.ZRJO08.TIM:5060;transport=UDP;lr>\r\nCall-ID: 67d985b01db407b-0007-01cd-0000-0000@10.223.110.75\r\nCSeq: 1 INVITE\r\nAllow: INVITE,ACK,OPTIONS,BYE,CANCEL,INFO,PRACK,UPDATE\r\nP-Charging-Vector: icid-value=4FF29D8613-0702-16520709;icid-generated-at=BC00.ZRCE09.TIM;orig-ioi=ZRCE09.TIM;term-ioi=ZRJO08.TIM\r\nAccept: application/sdp,application/isup,multipart/mixed\r\nMIME-Version: 1.0\r\nContent-Type: application/isup;version=itu-t92+;base=itu-t92+\r\nContent-Disposition: signal;handling=required\r\nContact: <sip:BC00.ZRJO08.TIM:5060;transport=UDP>\r\nContent-Length:   14\r\n\r\n\t\x01\x11\x02\x00\x00)\x01\x01!\x02\x00\x0b\x0090\x84f?2\x07\x00\xfc\x01\x00\x00\xfc\x01\x00\x00\x00\x01\x00\x03sip\x00\x00\x03\x00\x04\x00\x00\x00\x03\n\xdfnK\x00\x04\x00\x04\x00\x00\x00\x03\n.E\x8e\x00\x05\x13\xc4\x00\x00\x00\x00\x00\x06\x13\xc4\x00\x00\x00\x00\x00\x07\x00\x03udp\x00\x00\x02\x01\xc0ACK sip:BC00.ZRJO08.TIM:5060;transport=UDP SIP/2.0\r\nFrom: "85999230096" <sip:85999230096@timbr1N.com;user=phone>;tag=a8dd3c1b-0007-01cd-0000-0000\r\nTo: <sip:6000102308007260018@zrj8.v1n;user=phone>;tag=09004078565899\r\nMax-Forwards: 69\r\nVia: SIP/2.0/UDP  10.223.110.75:5060;branch=z9hG4bK48f5aaf2ack\r\nRoute: <sip:BC00.ZRJO08.TIM:5060;transport=UDP;lr>\r\nCall-ID: 67d985b01db407b-0007-01cd-0000-0000@10.223.110.75\r\nCSeq: 1 ACK\r\nContent-Length:    0\r\n\r\n90\x84f\x013\x07\x00\x7f\x02\x00\x00\x7f\x02\x00\x00\x00\x01\x00\x03sip\x00\x00\x03\x00\x04\x00\x00\x00\x03\n\xdfnK\x00\x04\x00\x04\x00\x00\x00\x03\n.E\x8e\x00\x05\x13\xc4\x00\x00\x00\x00\x00\x06\x13\xc4\x00\x00\x00\x00\x00\x07\x00\x03udp\x00\x00\x02\x02CPRACK sip:BC00.ZRJO08.TIM:5060;transport=UDP SIP/2.0\r\nFrom: "85999230096" <sip:85999230096@timbr1N.com;user=phone>;tag=a8dd3c1b-0007-01cd-0000-0000\r\nTo: <sip:6000102308007260018@zrj8.v1n;user=phone>;tag=09004078565899\r\nMax-Forwards: 69\r\nVia: SIP/2.0/UDP  10.223.110.75:5060;branch=z9hG4bKb7717e67\r\nRoute: <sip:BC00.ZRJO08.TIM:5060;transport=UDP;lr>\r\nCall-ID: 67d985b01db407b-0007-01cd-0000-0000@10.223.110.75\r\nCSeq: 3 PRACK\r\nRAck: 501 1 INVITE\r\nP-Charging-Vector: icid-value=4FF29D8613-0702-16520709;icid-generated-at=BC00.ZRCE09.TIM;orig-ioi=ZRCE09.TIM\r\nContent-Length:    0\r\n\r\n90\x84fM4\x07\x00\xa8\x01\x00\x00\xa8\x01\x00\x00\x00\x01\x00\x03sip\x00\x00\x03\x00\x04\x00\x00\x00\x03\n.E\x8e\x00\x04\x00\x04\x00\x00\x00\x03\n\xdfnK\x00\x05\x13\xc4\x00\x00\x00\x00\x00\x06\x13\xc4\x00\x00\x00\x00\x00\x07\x00\x03udp\x00\x00\x02\x01lSIP/2.0 200 OK\r\nFrom: "85999230096" <sip:85999230096@timbr1N.com;user=phone>;tag=a8dd3c1b-0007-01cd-0000-0000\r\nTo: <sip:6000102308007260018@zrj8.v1n;user=phone>;tag=09004078565899\r\nVia: SIP/2.0/UDP  10.223.110.75:5060;branch=z9hG4bKb7717e67;received=10.223.110.75\r\nCall-ID: 67d985b01db407b-0007-01cd-0000-0000@10.223.110.75\r\nCSeq: 3 PRACK\r\nContent-Length:    0\r\n\r\n90\x84f\xef4\x07\x00\xf2\x02\x00\x00\xf2\x02\x00\x00\x00\x01\x00\x03sip\x00\x00\x03\x00\x04\x00\x00\x00\x03\n\xdfnK\x00\x04\x00\x04\x00\x00\x00\x03\n.E\x8e\x00\x05\x13\xc4\x00\x00\x00\x00\x00\x06\x13\xc4\x00\x00\x00\x00\x00\x07\x00\x03udp\x00\x00\x02\x02\xb6INFO sip:BC00.ZRJO08.TIM:5060;transport=UDP SIP/2.0\r\nFrom: "85999230096" <sip:85999230096@timbr1N.com;user=phone>;tag=a8dd3c1b-0007-01cd-0000-0000\r\nTo: <sip:6000102308007260018@zrj8.v1n;user=phone>;tag=09004078565899\r\nMax-Forwards: 70\r\nVia: SIP/2.0/UDP  10.223.110.75:5060;branch=z9hG4bK24833135\r\nRoute: <sip:BC00.ZRJO08.TIM:5060;transport=UDP;lr>\r\nCall-ID: 67d985b01db407b-0007-01cd-0000-0000@10.223.110.75\r\nCSeq: 4 INFO\r\nP-Charging-Vector: icid-value=4FF29D8613-0702-16520709;icid-generated-at=BC00.ZRCE09.TIM;orig-ioi=ZRCE09.TIM;term-ioi=ZRJO08.TIM\r\nContent-Type: application/isup;version=itu-t92+;base=itu-t92+\r\nContent-Disposition: signal;handling=optional\r\nContent-Length:    7\r\n\r\n/\x02\x00\x03\x83\xe3)90\x84f\x9c6\x07\x002\x02\x00\x002\x02\x00\x00\x00\x01\x00\x03sip\x00\x00\x03\x00\x04\x00\x00\x00\x03\n.E\x8e\x00\x04\x00\x04\x00\x00\x00\x03\n\xdfnK\x00\x05\x13\xc4\x00\x00\x00\x00\x00\x06\x13\xc4\x00\x00\x00\x00\x00\x07\x00\x03udp\x00\x00\x02\x01\xf6SIP/2.0 400 Bad Request\r\nFrom: "85999230096" <sip:85999230096@timbr1N.com;user=phone>;tag=a8dd3c1b-0007-01cd-0000-0000\r\nTo: 
<sip:6000102308007260018@zrj8.v1n;user=phone>;tag=09004078565899\r\nVia: SIP/2.0/UDP  10.223.110.75:5060;branch=z9hG4bK24833135;received=10.223.110.75\r\nCall-ID: 67d985b01db407b-0007-01cd-0000-0000@10.223.110.75\r\nCSeq: 4 INFO\r\nP-Charging-Vector: icid-value=4FF29D8613-0702-16520709;icid-generated-at=BC00.ZRCE09.TIM;orig-ioi=ZRCE09.TIM;term-ioi=ZRJO08.TIM\r\nContent-Length:    0\r\n\r\n;0\x84f\xf2\xd0\n\x00\x07\x03\x00\x00\x07\x03\x00\x00\x00\x01\x00\x03sip\x00\x00\x03\x00\x04\x00\x00\x00\x03\n\xdfnK\x00\x04\x00\x04\x00\x00\x00\x03\n.E\x8e\x00\x05\x13\xc4\x00\x00\x00\x00\x00\x06\x13\xc4\x00\x00\x00\x00\x00\x07\x00\x03udp\x00\x00\x02\x02\xcbBYE sip:BC00.ZRJO08.TIM:5060;transport=UDP SIP/2.0\r\nFrom: "85999230096" <sip:85999230096@timbr1N.com;user=phone>;tag=a8dd3c1b-0007-01cd-0000-0000\r\nTo: <sip:6000102308007260018@zrj8.v1n;user=phone>;tag=09004078565899\r\nMax-Forwards: 70\r\nVia: SIP/2.0/UDP  
10.223.110.75:5060;branch=z9hG4bK25531d13\r\nRoute: <sip:BC00.ZRJO08.TIM:5060;transport=UDP;lr>\r\nCall-ID: 67d985b01db407b-0007-01cd-0000-0000@10.223.110.75\r\nCSeq: 5 BYE\r\nReason: Q.850;cause=16\r\nP-Charging-Vector: icid-value=4FF29D8613-0702-16520709;icid-generated-at=BC00.ZRCE09.TIM;orig-ioi=ZRCE09.TIM;term-ioi=ZRJO08.TIM\r\nContent-Type: application/isup;version=itu-t92+;base=itu-t92+\r\nContent-Disposition: signal;handling=optional\r\nContent-Length:    6\r\n\r\n\x0c\x02\x00\x02\x80\x90;0\x84f+\xd3\n\x00a\x02\x00\x00a\x02\x00\x00\x00\x01\x00\x03sip\x00\x00\x03\x00\x04\x00\x00\x00\x03\n.E\x8e\x00\x04\x00\x04\x00\x00\x00\x03\n\xdfnK\x00\x05\x13\xc4\x00\x00\x00\x00\x00\x06\x13\xc4\x00\x00\x00\x00\x00\x07\x00\x03udp\x00\x00\x02\x02%SIP/2.0 200 OK\r\nFrom: "85999230096" <sip:85999230096@timbr1N.com;user=phone>;tag=a8dd3c1b-0007-01cd-0000-0000\r\nTo: <sip:6000102308007260018@zrj8.v1n;user=phone>;tag=09004078565899\r\nVia: SIP/2.0/UDP  10.223.110.75:5060;branch=z9hG4bK25531d13;received=10.223.110.75\r\nCall-ID: 67d985b01db407b-0007-01cd-0000-0000@10.223.110.75\r\nCSeq: 5 BYE\r\nAllow: INVITE,ACK,OPTIONS,BYE,CANCEL,INFO,PRACK,UPDATE\r\nMIME-Version: 1.0\r\nContent-Type: application/isup;version=itu-t92+;base=itu-t92+\r\nContent-Disposition: signal;handling=required\r\nContent-Length:    2\r\n\r\n\x10\x00'
90fsip
nK